:04000000803117280C
:100008007E1480314E018C1A961E1528013041014C
:10001800CD070030CE3D0030CF3D0030D03D4E0101
:100028008C127E100900803119282030840000309D
:1000380085003C308331E8238031A03084000030D3
:10004800850035308331E8237E1040018231392A1A
:10005800F2008331142380317208253E84008330F6
:100068000318013E85000008F1007108F300FD3017
:10007800F10071089305731C4428180802384628B3
:100088001808FD398E007336F1007108F300FE3050
:10009800F10071089305731C542818080138562874
:1000A8001808FE398E007336F1007108F300FD3030
:1000B800F10071089105731C642816080238662837
:1000C8001608FD398C007336F1007108F3007F3093
:1000D800F10071089305731C742818088038762875
:1000E80018087F398E007336F1007108F300BF30AD
:1000F800F10071089305731C842818084038862875
:100108001808BF398E007336F1007108F300DF302C
:10011800F10071089305731C942818082038962854
:100128001808DF398E007336F1007108F300FB30D0
:10013800F10071089305731CA42818080438A62830
:100148001808FB398E007336F1007108F300FD3092
:10015800F10071089205701CB42817080238B628F7
:100168001708FD398D00EF30F10071089105160868
:10017800EF398C000800E10047080839DF005F0804
:10018800C7008331452380315E080319D02847080A
:100198000138DF005F08C70047080F39DF005F0834
:1001A800C7006108F0394704DF005F08C7008331E2
:1001B800452380316430823167228031400147080D
:1001C8000438DF005F08C70083314523803164307D
:1001D80082316722803140014708FB39DF005F0820
:1001E800C7008331452380316430823167228031F2
:1001F800400147080839DF005F08C70083314523FD
:1002080080315E0803190D2947080138DF005F08AF
:10021800C70047080F39DF005F08C70061080F39BA
:10022800DF000330DF35FF3E031D16295F35470425
:10023800E0006008C7008331452380316430823193
:1002480067228031400147080438DF005F08C70093
:100258008331452380316430823167228031400107
:100268004708FB39DF005F08C70083314523803129
:10027800643082316722080027308331AE23813110
:100288000830E2006208C7008331452381310C3011
:100298008331912381314001DE0133308031BF2029
:1002A800813102308331912381314001DE013330C5
:1002B8008031BF2081310230833191238131400167
:1002C800DE0132308031BF20813102308331912309
:1002D80081314001DE012C308031BF208131023074
:1002E8008331912381314001DE0106308031BF2006
:1002F800813102308331912381314001DE010C309C
:100308008031BF2081310230833191238131400116
:10031800DE0101308031BF208131023083319123E9
:1003280081314001DE0102308031BF20813102304D
:100338008331912381318231EF220800F200F301E9
:100348008030F1007108F40074080319DE2972087E
:1003580074050319B1291316B929EF30F100710892
:100368009305EF30F10071088E0504308231672261
:100378008131400193150430823167228131FF3089
:100388004001B800FF30B900D2290130B80200306E
:10039800B93B380A0319390A0319D4298E1DC9290A
:1003A800F730F10071089305F730F10071088E05F8
:1003B8007436A52913160430823167228131400131
:1003C80093150430823167228131400113160E1EC5
:1003D800EF29F301F30AF730F10071089305F730BC
:1003E800F10071088E0573080800FA00FB01FB0A8A
:1003F800F81F052AFF307705F7007F307805F800E9
:10040800FB0178087602031D0B2A77087502031C86
:100418000800FC01FD018231A32281316D35813153
:10042800A2218131003A031D080078087D02031DCE
:100438001F2A77087C020318332A7C087A07F900F8
:1004480079088600870101088131A2218131003AAB
:10045800031D332A0130FC070030FD3D192A7B08B3
:10046800031908008231872208007E01B801C30100
:10047800CE01D901E401813140218231003083313C
:1004880035238231BD01D901F0013D0880312C208E
:1004980082313D08013EEC006C08BD00013082311C
:1004A800BF22823101304001EC006C08D9070A30C4
:1004B8005902031C482A02308231BF22823183311B
:1004C800DF238231662AF00064307002031C792A27
:1004D800A630890B6D2A00326430F002682A103089
:1004E800890B742A00320A30F0020A307002031CA9
:1004F800812A732A0032003200000130F002700AAB
:10050800031908007E2AF730F10071089305F730C7
:10051800F10071088E05EF30F10071089305EF3096
:10052800F10071088E050430823167228231400162
:100538009315043082316722400113160800931581
:1005480013160430823167228231EF30F1007108CE
:1005580040019305EF30F10071088E0504308231B7
:100568006722F730F100710840019305F730F10078
:1005780071088E050800F300F4017308740203186B
:100588000800FA30833191238231FA308331912384
:100598008231FA30833191238231FA3083319123C9
:1005A80082310130F2007208F407C12A5034433412
:1005B80042342034663475346C346C3479342034E5
:1005C800663475346E346334743469346F346E341D
:1005D80061346C3400344001DE0101308031BF20C9
:1005E800823102308331912382314001DE010230B1
:1005F8008031BF2082310230833191230800533487
:1006080065346E3473346F34723420347734613423
:100618006B3469346E346734203475347034003484
:100628000030E7000030E6000030E5000030E4006C
:100638000030E3000030E2000030E1003F30E0002D
:1006480008003F3406345B344F3466346D347D34EF
:1006580007347F346F3400340034003400340034FD
:1006680000344001DF005F0803193D2B47080838B4
:100678003F2B4708F739DE005E08C7008331452362
:1006880008004708DC005C08DD000130F500003098
:10069800F6000130F7000030F8005D308131F921B3
:1006A8000800483475346D346934643469347434FA
:1006B800793420342034203420343D34203400343C
:1006C800543465346D347034653472346134743440
:1006D80075347234653420343D3420340034503459
:1006E8004934433420344434653476342E34203449
:1006F80042346F34613472346434003450346534B5
:100708007434653472342034483461346C346C3455
:100718006F347734613479340034F1000130F102F8
:10072800710A031908000730F0007D30890B9A2BF5
:10073800F00B9A2B0000922B4434653463346534F3
:100748006D346234653472342034323430343234A7
:1007580034340034F1007108F00070084001ED00F5
:100768005208031D0800D201D20A8331EE23080083
:10077800313432343334343435343634373438342D
:1007880039342A3430342334003401340234033405
:100798000434053406340734083409340A34003480
:1007A8000B34563465347234733469346F346E34B0
:1007B800203433340034EF30F000700840019105E4
:1007C800160810388C000800640080010131890B7C
:1007D800E92B0034131693150800253400342C3403
:0E07E8000034303400343134003443340034F3
:020000040001F9
:0A000E00FA173F259207FF0FFF3F8E
:00000001FF
