:04000000803117280C
:100008007E1480314E018C1A961E1528013041014C
:10001800D1070030D23D0030D33D0030D43D4E01F1
:100028008C127E100900803119282030840000309D
:1000380085002D308531A4258031A0308400003022
:10004800850049308531A4257E1040018331EA2B93
:100058005008DD004F08DC004E08DB004D08DA00D0
:100068003B30E1009A30E000CA30DF000030DE00AB
:10007800D9015208530403190800DD1F59282D30EF
:10008800D400510886008701540881000130D4004B
:100098005408D907DA09DB09DC09DD09DA0A03198A
:1000A800DB0A0319DC0A0319DD0AD8015D085C04C0
:1000B8005B045A04031DE028D801D80A0030E10087
:1000C8000030E0000030DF000130DF2861085D0209
:1000D800031D782860085C02031D78285F085B020E
:1000E800031D78285E085A0203187D28580803194A
:1000F800C5286108F3006008F2005F08F1005E0897
:10010800F0005D08F7005C08F6005B08F5005A0887
:10011800F4008231A02280317008D4005408D8003D
:100128005808303ED40059085107D50055088600B4
:100138008701540881000130D4005408D9075808B1
:10014800D400D501D601D7015708F3005608F200AC
:100158005508F1005408F0006108F7006008F6003F
:100168005F08F5005E08F40083313323803170089E
:10017800DA027108DB3B7208DC3B7308DD3BD8010F
:10018800D80A0030F3000030F2000030F1000A30E5
:10019800F0006108F7006008F6005F08F5005E08E7
:1001A800F4008231A02280317308E1007208E00077
:1001B8007108DF007008DE005908D400D501530823
:1001C8005502031DE928520854020318F128610852
:1001D80060045F045E04031D6A285908D400D50131
:1001E80053085502031DFA28520854020318080040
:1001F80059085107D4005408860087018101080076
:10020800D20039080839D0005008B90085310925CD
:1002180081314F080319152939080138D0005008D1
:10022800B90039080F39D0005008B9005208F03920
:100238003904D0005008B90085310925813164306E
:1002480084310F248131400139080438D000500826
:10025800B900853109258131643084310F24813119
:1002680040013908FB39D0005008B900853109250B
:100278008131643084310F248131400139080839D3
:10028800D0005008B9008531092581314F0803197C
:10029800522939080138D0005008B90039080F39F7
:1002A800D0005008B90052080F39D0000330D035BB
:1002B800FF3E031D5B2950353904D1005108B900B0
:1002C800853109258131643084310F248131400121
:1002D80039080438D0005008B90085310925813122
:1002E800643084310F24813140013908FB39D00052
:1002F8005008B900853109258131643084310F24D3
:10030800080027308531552581310830D30053083E
:10031800B9008531092581310C3085316425813159
:100328004001CF01333081310421813102308531E0
:10033800642581314001CF0133308131042181317D
:1003480002308531642581314001CF01323081315D
:100358000421813102308531642581314001CF018A
:100368002C3081310421813102308531642581317D
:100378004001CF01063081310421813102308531BD
:10038800642581314001CF010C3081310421813154
:1003980002308531642581314001CF01013081313E
:1003A8000421813102308531642581314001CF013A
:1003B8000230813104218131023085316425813157
:1003C8008431D4240800D7000030DB000030DA0084
:1003D8000030D9000030D800DE0157085E0203184B
:1003E800262A8431A324813179084001DD00780868
:1003F800DC004D0884310F24813140015808CF00BA
:100408005908D0005A08D1005B08D2005C08D30014
:100418005D08D400D501D6015308CF075408D03D54
:100428005508D13D5608D23D5208DB005108DA0084
:100438005008D9004F08D8005E08013ECF004F0889
:10044800DE00F1295E08CF00D001D101D2015208A7
:10045800F3005108F2005008F1004F08F0005B0863
:10046800F7005A08F6005908F5005808F4008231D8
:10047800A0227108DD007008DC005D08CE005C0871
:10048800CD000800F200F3018030F1007108F4009B
:1004980074080319842A720874050319562A40013E
:1004A80013165F2AEF30F100710840019305EF3011
:1004B800F10071088E05043084310F248231400127
:1004C8009315043084310F248231FF304001AA0093
:1004D800FF30AB00782A0130AA020030AB3B2A0A71
:1004E80003192B0A03197A2A8E1D6F2AF730F10097
:1004F80071089305F730F10071088E057436492AA2
:1005080040011316043084310F24823140019315C1
:10051800043084310F248231400113160E1E962AAE
:10052800F301F30AF730F10071089305F730F10091
:1005380071088E05730808000030FC000030FB00CD
:100548000030FA000030F900730872047104700476
:100558000319E92AFD01FD0AF31BBE2A0130F03513
:10056800F10DF20DF30D890BB32A0130F80078086C
:10057800FD07B02A0130F935FA0DFB0DFC0D890B8A
:10058800BF2A73087702031DD32A72087602031D57
:10059800D32A71087502031DD32A70087402031C3C
:1005A800DE2A7008F4027108F53B7208F63B7308FE
:1005B800F73B79140130F336F20CF10CF00C890B8F
:1005C800DF2A0130FD02031DBE2A7C08F3007B08E8
:1005D800F2007A08F1007908F0000800FA00FB013F
:1005E800FB0AF81FFE2AFF307705F7007F307805F1
:1005F800F800FB0178087602031D042B77087502C2
:10060800031C0800FC01FD0184318724823141016B
:100618006935823146228231003A031D0800780884
:100628007D02031D192B77087C0203182D2B7C08EB
:100638007A07F90079088600870101088231462285
:100648008231003A031D2D2B0130FC070030FD3D9F
:10065800132B7B080319080084316B240800003031
:10066800FB000030FA000030F9000030F800701C80
:10067800452B7408F8077508F93D7608FA3D7708A0
:10068800FB3D0130F435F50DF60DF70D890B462BC2
:100698000130F336F20CF10CF00C890B4D2B73087A
:1006A800720471047004031D3B2B7B08F3007A0865
:1006B800F2007908F1007808F0000800DB0154081E
:1006C800F1005308F0005608F3005508F200843191
:1006D8004E2483317008D7005708DA005A085B02A5
:1006E800031808001030D7005708CF005408D90065
:1006F8005308D8005B085807840059080318590A9A
:100708008500000881310421833140015B08013EE6
:10071800D7005708DB00722BF5004101131413189A
:10072800932B75080319B22B0D08F200F301F2356B
:10073800F30DF235F30D7208F6007308F7000C0894
:10074800F2000630F236890BA62B76087204F30005
:100758007708F4007308F6007408B82B0D08F20047
:10076800F3017208F6007308F7007708F1007608BD
:10077800F0000800F600083076020318D12B01308B
:10078800F40076080739890ACA2BF435890BC92B76
:100798007408F50075089104D72B10307602031CF5
:1007A800D72B18307602760841019E009A018030D6
:1007B800930071083F39980072080319E62B1A084C
:1007C80072049A00730884310F2408007E01B8016E
:1007D800C301CE01D901E4018131852183318431FE
:1007E800D424833164304001EF006F08CD000A3013
:1007F8008131E72183314E08A1004D08A00021086E
:10080800E3002008E20084312F2483310A30853147
:1008180064258331F32BF00064307002031C212C13
:10082800A630890B152C00326430F002102C1030E1
:10083800890B1C2C00320A30F0020A307002031CAB
:10084800292C1B2C0032003200000130F002700A03
:1008580003190800262C6208CD006308CE00890D14
:10086800893B8909CF00D0006530E4006408D100D5
:100878000A30D2000030D30080312C20843165301A
:10088800D3000030D4000A30D5000030D6008331C0
:1008980062230800F501F60173087602031D562C41
:1008A800720875020318662C7008750784007108B1
:1008B800763D850012000319662C0130F5070030DB
:1008C800F63D502C7608F1007508F0000800F73066
:1008D800F10071089305F730F10071088E05EF30CB
:1008E800F10071089305EF30F10071088E050430AE
:1008F80084310F24843140019315043084310F244E
:1009080040011316080093151316043084310F2480
:100918008431EF30F100710840019305EF30F100A8
:1009280071088E05043084310F24F730F100710806
:1009380040019305F730F10071088E050800313049
:10094800FA007A08F100F2012830FB007B08F30076
:1009580000308331BE2384310130833190238431C8
:100968007108FD007008FC008531B7257D08F90085
:100978007C08F8000800503443344234203466348C
:1009880075346C346C3479342034663475346E3490
:100998006334743469346F346E3461346C340034C5
:1009A8004001CF0101308131042184310230853189
:1009B800642584314001CF01023081310421843122
:1009C8000230853164250800533465346E3473343D
:1009D8006F3472342034773461346B3469346E3454
:1009E800673420347534703400343F3406345B3453
:1009F8004F3466346D347D3407347F346F340034BB
:100A0800003400340034003400343908CD004D0877
:100A1800CE000130F5000030F6000130F70000305C
:100A2800F8004E308231F2220800483475346D34B3
:100A3800693464346934743479342034203420348B
:100A480020343D3420340034543465346D347034EB
:100A580065347234613474347534723465342034D6
:100A68003D34203400345034493443342034443441
:100A7800653476342E34203442346F346134723421
:100A8800643400345034653474346534723420343A
:100A9800483461346C346C346F347734613479346D
:100AA8000034F1007108F00070084101E9004001CC
:100AB8004408031D0800C401C40A8531AA2508009A
:100AC800F1000130F102710A031908000730F00043
:100AD8007D30890B6D2DF00B6D2D0000652D443494
:100AE8006534633465346D3462346534723420346B
:100AF80032343034323434340034313432343334F0
:100B08003434353436343734383439342A3430349C
:100B180023340034013402340334043405340634F5
:100B28000734083409340A3400340B345634653435
:100B38007234733469346F346E342034333400348F
:100B4800640080010131890BA52D0034131693151B
:100B58000800253400342C34003430340034313467
:0A0B68000034433400349301080008
:020000040001F9
:0A000E00FA173F259207FF0FFF3F8E
:00000001FF
