:04000000803117280C
:100008007E1480314E018C1A961E1528013041014C
:10001800CC070030CD3D0030CE3D0030CF3D4E0105
:100028008C127E100900803119282030840000309D
:1000380085002B3087316D278031A0308400003057
:1000480085004C3087316D277E1040018731632F42
:100058004E08DB004D08DA004C08D9004B08D800E0
:100068003B30DF009A30DE00CA30DD000030DC00B3
:10007800D7015008510403190800DB1F59282D30F7
:10008800D2004F0886008701520881000130D20053
:100098005208D707D809D909DA09DB09D80A031998
:1000A800D90A0319DA0A0319DB0AD6015B085A04CC
:1000B80059045804031DE028D601D60A0030DF0091
:1000C8000030DE000030DD000130DF285F085B0211
:1000D800031D78285E085A02031D78285D08590216
:1000E800031D78285C08580203187D285608031950
:1000F800C5285F08F3005E08F2005D08F1005C089F
:10010800F0005B08F7005A08F6005908F50058088F
:10011800F4008331912380317008D2005208D60050
:100128005608303ED20057084F07D30053088600C0
:100138008701520881000130D2005208D7075608BB
:10014800D200D301D401D5015508F3005408F200B8
:100158005308F1005208F0005F08F7005E08F60047
:100168005D08F5005C08F40084317424803170085F
:10017800D8027108D93B7208DA3B7308DB3BD60119
:10018800D60A0030F3000030F2000030F1000A30E7
:10019800F0005F08F7005E08F6005D08F5005C08EF
:1001A800F4008331912380317308DF007208DE0088
:1001B8007108DD007008DC005708D200D30151082F
:1001C8005302031DE928500852020318F1285F085A
:1001D8005E045D045C04031D6A285708D200D3013D
:1001E80051085302031DFA28500852020318080048
:1001F80057084F07D200520886008701810108007E
:10020800FB304001CB004B0895051A08FB399000DC
:10021800013087310A2781314001A001A101A201E3
:10022800A301A4011030F0000030F1001530F200F5
:100238000030F3000430CB004B08F4000230CC004F
:100248004C08F5008531CD258131FF30CB004B08B6
:10025800FD00101D38297D08FF3ECB004B08FD002E
:100268007D08031908002D29FF30CB004B08FD003D
:10027800101947297D08FF3ECB004B08FD007D087B
:10028800031908003C29FF30CB004B08FD00101D66
:1002980056297D08FF3ECB004B08FD007D08031959
:1002A80008004B290530CB004B08FC007C080319DB
:1002B8009D298030CB004B08FA007C08FF3ECB001C
:1002C8004B08FC007A0803195A29FF30CB004B0869
:1002D800FB00101978297B08FF3ECB004B08FB0078
:1002E8007B08031908006D29FF30CB004B08FD007F
:1002F800101D87297D08FF3ECB004B08FD007D08B7
:10030800031908007C297B087D02031898297C08BA
:10031800203E8600870101087A04CB007C08203E35
:10032800860087014B0881007A36CB004B08FA001B
:1003380066292108CB00CC012208CD00CE01240873
:100348002307CF00D001D00D4D084F07D1004E082C
:10035800503DD2004B085107D3004C08523DD40001
:100368005308F8005408F900FF307805F800003009
:100378007905F9002008CB00CC0179084C06031D4B
:10038800C72978084B06031D08002408A60023087F
:10039800A5002208A8002108A70008008231D82259
:1003A80081316D304001D1008630D2001130D30048
:1003B8000030D4008431A324813107308531B2253F
:1003C80081314001CA0181310421813186313726CA
:1003D80081317908ED006D08AB008431D124813179
:1003E8007908ED006D08AF008531FD258131DD30DC
:1003F8004001D1008630D2000F30D3000030D40045
:100408008431A32481312F08ED00EE016D08E0004E
:100418006E08E10085311F2581318130D100873098
:10042800D2000230D3000030D4008431A3248131BB
:10043800D101D10A003085313E258131CE304001CD
:10044800D1008630D2000F30D3000030D400843180
:10045800A32481312B08ED00EE016D08E0006E0841
:10046800E10085311F2581317930D1008730D200F4
:100478000230D3000030D4008431A32481310A3003
:100488008531B225813101304001ED006D08CA0780
:1004980006304A02031CE7298531FD2581310030E9
:1004A8008631AE260800D00037080839CE004E083D
:1004B800B7008631BE2682314D080319682A3708ED
:1004C8000138CE004E08B70037080F39CE004E0865
:1004D800B7005008F0393704CE004E08B70086310F
:1004E800BE26823164308431FF24823140013708CE
:1004F8000438CE004E08B7008631BE2682316430FB
:100508008431FF24823140013708FB39CE004E0880
:10051800B7008631BE26823164308431FF248231AF
:10052800400137080839CE004E08B7008631BE268C
:1005380082314D080319A52A37080138CE004E0824
:10054800B70037080F39CE004E08B70050080F39EA
:10055800CE000330CE35FF3E031DAE2A4E3537049C
:10056800CF004F08B7008631BE268231643084310F
:10057800FF248231400137080438CE004E08B70006
:100588008631BE26823164308431FF2482314001B5
:100598003708FB39CE004E08B7008631BE268231B7
:1005A80064308431FF2408002730873127278231BF
:1005B8000830D1005108B7008631BE2682310C3090
:1005C80087310A2782314001CD01333082315722E9
:1005D8008231023087310A2782314001CD01333020
:1005E800823157228231023087310A278231400115
:1005F800CD013230823157228231023087310A27C9
:1006080082314001CD012C308231572282310230B3
:1006180087310A2782314001CD01063082315722C5
:100628008231023087310A2782314001CD010C30F6
:10063800823157228231023087310A2782314001C4
:10064800CD010130823157228231023087310A27A9
:1006580082314001CD01023082315722823102308D
:1006680087310A2782318531FD250800F200F30120
:100678008030F1007108F40074080319762B7208B1
:1006880074050319492B1316512BEF30F10071082B
:100698009305EF30F10071088E0504308431FF2492
:1006A80083314001931504308431FF248331FF30B6
:1006B8004001A900FF30AA006A2B0130A9020030CE
:1006C800AA3B290A03192A0A03196C2B8E1D612BD0
:1006D800F730F10071089305F730F10071088E05C5
:1006E80074363D2B131604308431FF2483314001C6
:1006F800931504308431FF248331400113160E1EF4
:10070800872BF301F30AF730F10071089305F730EE
:10071800F10071088E05730808000030FC000030F5
:10072800FB000030FA000030F9007308720471040D
:1007380070040319DA2BFD01FD0AF31BAF2B0130FE
:10074800F035F10DF20DF30D890BA42B0130F800F3
:100758007808FD07A12B0130F935FA0DFB0DFC0DCA
:10076800890BB02B73087702031DC42B720876021D
:10077800031DC42B71087502031DC42B7008740275
:10078800031CCF2B7008F4027108F53B7208F63B86
:100798007308F73B79140130F336F20CF10CF00CC6
:1007A800890BD02B0130FD02031DAF2B7C08F30011
:1007B8007B08F2007A08F1007908F0000800F601D9
:1007C800F11FED2BF009F109F00A0319F10AF601FE
:1007D800F60AF31FF82BF209F309F20A0319F30AD0
:1007E8000130F4007408F606F701F8017008710486
:1007F8000319272CF501F50AF11B0C2C0130F035F3
:10080800F10D890B032C0130F4007408F507002C56
:100818000130F735F80D890B0D2C71087302031D93
:10082800172C70087202031C1E2C7008F202710843
:10083800F33B77140130F136F00C890B1F2C013093
:10084800F502031D0C2C760803192F2CF709F8095B
:10085800F70A0319F80A7808F1007708F000080089
:10086800FA00FB01FB0AF81F402CFF307705F70060
:100878007F307805F800FB0178087602031D462CC6
:1008880077087502031C0800FC01FD0185319625D7
:1008980084316F3583313A238431003A031D0800CF
:1008A80078087D02031D5A2C77087C0203186E2CE9
:1008B8007C087A07F90079088600870101088331E6
:1008C8003A238431003A031D6E2C0130FC070030B6
:1008D800FD3D542C7B080319080085317A25080052
:1008E8000030FB000030FA000030F9000030F8005A
:1008F800701C862C7408F8077508F93D7608FA3DCF
:100908007708FB3D0130F435F50DF60DF70D890B31
:10091800872C0130F336F20CF10CF00C890B8E2C7D
:100928007308720471047004031D7C2C7B08F300A7
:100938007A08F2007908F1007808F0000800D90177
:100948005208F1005108F0005408F3005308F2006F
:1009580085315D2584317008D5005508D8005808C0
:100968005902031808001030D5005508CD00520868
:10097800D7005108D60059085607840057080318AD
:10098800570A8500000882315722843140015908EE
:10099800013ED5005508D900B32CA81FEC2C0A300D
:1009A800F0000030F100FF302705F2007F30280505
:1009B800F3008331E32384317009FB007109FC00E3
:1009C800FB0A0319FC0A7B08CB007C08CC00FA2C34
:1009D8000A30F0000030F1002808F3002708F20080
:1009E8008331E3237108CC007008CB004C08FA006F
:1009F8004B08F9000800F00064307002031C112D48
:100A0800A630890B052D00326430F002002D10301D
:100A1800890B0C2D00320A30F0020A307002031CD8
:100A2800192D0B2D0032003200000130F002700A3F
:100A380003190800162D6008CB006108CC00890D49
:100A4800893B8909CD00CE006330E2006208CF00FF
:100A58000A30D0000030D10080312C20853163303D
:100A6800D1000030D2000A30D3000030D4008431E5
:100A7800A3240800D3005108031D442D8030502DB5
:100A88005103031D492DC030502D02305106031D5E
:100A98004F2D9430502DD430D2005208D100CD01C2
:100AA80051085307823157228531023087310A278E
:100AB8000800F501F60173087602031D652D72081A
:100AC80075020318752D7008750784007108763D46
:100AD800850012000319752D0130F5070030F63D29
:100AE8005F2D7608F1007508F0000800F730F10076
:100AF80071089305F730F10071088E05EF30F100A9
:100B080071089305EF30F10071088E0504308431C7
:100B1800FF2485314001931504308431FF244001BE
:100B2800131608009315131604308431FF248531F9
:100B3800EF30F100710840019305EF30F1007108C2
:100B48008E0504308431FF24F730F100710840012C
:100B58009305F730F10071088E050800F300F401E1
:100B68007308740203180800FA3087310A278531A0
:100B7800FA3087310A278531FA3087310A278531DB
:100B8800FA3087310A2785310130F2007208F407FC
:100B9800B42D720886007308870001087404F600F3
:100BA800720886007308870076088100700886003E
:100BB8007108870001087405F600750AE42DF636F9
:100BC800890BE32D7608080050344334423420342E
:100BD800663475346C346C34793420346634753446
:100BE8006E346334743469346F346E3461346C3405
:100BF80000344001CD010130823157228531023065
:100C080087310A2785314001CD01023082315722D0
:100C18008531023087310A270800443434342034BF
:100C280026342034443431343E342034473452346A
:100C3800453445344E3420344C344534443400343F
:100C480044343534203426342034443432343E3469
:100C5800203441344D3442344534523420344C34F9
:100C68004534443400340A30F0000030F1002608DE
:100C7800F3002508F2008331E3237108FC007008B3
:100C8800FB007C08FA007B08F9000800543465343E
:100C980073347434203461346C346C3420347334D9
:100CA80077346934743463346834653473340034A5
:100CB80044343634203426342034443433343E34F7
:100CC800203452344534443420344C34453444348C
:100CD8000034533465346E3473346F3472342034D2
:100CE800773461346B3469346E3467342034753446
:100CF800703400343F3406345B344F3466346D341A
:100D08007D3407347F346F340034003400340034C9
:100D18000034003441346E3461346C346F346734D9
:100D28002034763461346C347534653420343D3481
:100D38002034003454346F342034653478346934C2
:100D4800743420347034723465347334733420341A
:100D5800233400344001CE004E080319B62E37085C
:100D68000838B82E3708F739CD004D08B700863156
:100D7800BE2608003708CB004B08CC000130F50030
:100D88000030F6000130F7000030F8004C308431B4
:100D980034240800483475346D3469346434693453
:100DA8007434793420342034203420343D342034D1
:100DB8000034543465346D347034653472346134BD
:100DC800743475347234653420343D34203400343E
:100DD80050344934433420344434653476342E3422
:100DE800203442346F346134723464340034503403
:100DF80065347434653472342034483461346C3466
:100E08006C346F347734613479340034F100013054
:100E1800F102710A031908000730F0007D30890BD0
:100E2800132FF00B132F00000B2F44346534633459
:100E380065346D346234653472342034323430347D
:100E4800323434340034F1007108F0007008400185
:100E5800EF004208031D0800C201C20A8731762745
:100E6800080031343234333434343534363437349A
:100E7800383439342A3430342334003401340234D9
:100E880003340434053406340734083409340A3486
:100E980000340B34443469347334743461346E343C
:100EA8006334653420343D34003456346534723448
:100EB800733469346F346E342034333400347E0133
:100EC800B801C301CE01D901E4018131D2218731B2
:100ED8006C2F640080010131890B6E2F003463345C
:100EE8006D340034131693150800253400342C345F
:0E0EF8000034303400343134003443340034DC
:020000040001F9
:0A000E00FA173F37923FFF1FFF3F34
:00000001FF
