:04000000803117280C
:100008007E1480314E018C1A961E1528013041014C
:10001800BC070030BD3D0030BE3D0030BF3D4E0145
:100028008C127E100900803119285D308400003060
:10003800850013308E311E268031A03084000030B8
:1000480085004F308E311E268031203084000130EB
:10005800850015308E311E267E1040018E31242EEB
:1000680023088039A8002808AD002335A8002808EF
:10007800B300A21B3314330803194F28330A031D96
:100088004D280030A3000030A2000030A10000304D
:10009800A000A21757280030A3000030A2000030AB
:1000A800A1000030A00027088039A8002808AD0664
:1000B8002735A8002808AE00A61B2E142E08031901
:1000C80072282E0A031D70280030A7000030A600F1
:1000D8000030A5000030A400A6177A280030A70039
:1000E8000030A6000030A5000030A4002E08031D33
:1000F8003308031D88280030A3000030A200003018
:10010800A1000030A00008002008A8002808F0007E
:1001180026088F31242780317108B9007008B8008B
:100128003808A800A901AA01AB012B08B2002A08C7
:10013800B1002908B0002808AF003908A800A901B3
:10014800AA01AB012B08B7002A08B6002908B50098
:100158002808B4002108A8002808F00025088F31D5
:10016800242780317108B9007008B8003808A80041
:10017800A901AA01AB012808AF072908B03D2A0840
:10018800B13D2B08B23D3908A800A901AA01AB016D
:100198002808B4072908B53D2A08B63D2B08B73DFD
:1001A8002208A8002808F00024088F31242780316D
:1001B8007108B9007008B8003808A800A901AA0198
:1001C800AB012808AF072908B03D2A08B13D2B0824
:1001D800B23D3908A800A901AA01AB012808B40753
:1001E8002908B53D2A08B63D2B08B73D0830AF357C
:1001F800B00DB10DB20D890BFB282108A800280805
:10020800F00024088F31242780317108B900700864
:10021800B8003808AF073908B03D0030B13DB23DED
:100228002008A8002808F00025088F3124278031ED
:100238007108B9007008B8003808AF073908B03D30
:100248000030B13DB23D0830AF35B00DB10DB20D43
:10025800890B28292008A8002808F00024088F31D5
:10026800242780317108B9007008B8003808AF0732
:100278003908B03D0030B13DB23D2108A80028083A
:10028800F00026088F31242780317108B9007008E2
:10029800B8003808B4073908B53D0030B63DB73D59
:1002A8002208A8002808F00025088F31242780316B
:1002B8007108B9007008B8003808B4073908B53DA6
:1002C8000030B63DB73D2208A8002808F0002608EF
:1002D8008F31242780317108B9007008B8003808B8
:1002E800A8003908A900AA01AB010830A835A90D52
:1002F800AA0DAB0D890B7A292808B4072908B53D42
:100308002A08B63D2B08B73D3208A800A901AA0162
:10031800AB012808B4072908B53D2A08B63D2B08C3
:10032800B73D0830AF35B00DB10DB20D890B962928
:1003380033082E07A800A901A90D2808823EB80095
:10034800FF30293DB900B61BBE290130B435B50DC3
:10035800B60DB70D890BAA29B21B34140130AF357D
:10036800B00DB10DB20D890BB329FF30B807FF30BE
:10037800B93DA729AE01B21FD729FF302F05A80024
:10038800FF303005A900FF303105AA007F30320563
:10039800AB002B082A042904280403193418D5298A
:1003A800D729AE01AE0A2E080319002A0130B40776
:1003B8000030B53D0030B63D0030B73D371C002A4F
:1003C8003408A8003508A9003608AA003708AB0089
:1003D8000130AC00AB37AA0CA90CA80CAC0BEE2969
:1003E8002B08B7002A08B6002908B5002808B40069
:1003F8000130B8070030B93D3908803AA80080308C
:100408002802031D092AFF303802031C152A7F30F1
:100418004001B7008030B6000030B5000030B400AD
:100428003F2A40013908803AA80080302802031D7D
:100438001F2A0130380203182C2A00304001B70067
:100448000030B6000030B5000030B400AD013F2ADE
:1004580040013808A8002808B300FF30B405FF3071
:10046800B5057F30B6050030B7053318B6173336F3
:10047800A8002808B7002D08A8002808B7043708DE
:10048800A3003608A2003508A1003408A00008001F
:100498002308B0002208AF002108AE002008AD00F4
:1004A8003B30B4009A30B300CA30B2000030B1001B
:1004B800AC012508260403190800B01F792A2D303D
:1004C800A700240886008701270881000130A700BB
:1004D8002708AC07AD09AE09AF09B009AD0A031981
:1004E800AE0A0319AF0A0319B00AAB0130082F048A
:1004F8002E042D04031D002BAB01AB0A0030B40001
:100508000030B3000030B2000130FF2A3408300256
:10051800031D982A33082F02031D982A32082E0239
:10052800031D982A31082D0203189D2A2B08031948
:10053800E52A3408F3003308F2003208F1003108E4
:10054800F0003008F7002F08F6002E08F5002D08F7
:10055800F4008631ED2682317008A7002708AB0029
:100568002B08303EA7002C082407A800280886007E
:100578008701270881000130A7002708AC072B084E
:10058800A700A801A901AA012A08F3002908F20076
:100598002808F1002708F0003408F7003308F600AF
:1005A8003208F5003108F4008F31D1278231700804
:1005B800AD027108AE3B7208AF3B7308B03BAB01AC
:1005C800AB0A0030F3000030F2000030F1000A30CE
:1005D800F0003408F7003308F6003208F500310857
:1005E800F4008631ED2682317308B4007208B30036
:1005F8007108B2007008B1002C08A700A8012608ED
:100608002802031D092B250827020318112B34087B
:10061800330432043104031D8A2A2C08A700A801D8
:1006280026082802031D1A2B25082702031808008C
:100638002C082407A70027088600870181010800E5
:100648004001DA01FE30D70057089405190801382F
:100658008F000A308F3162278331FE304001D70086
:10066800570894051908FE398F00DB01DC01432B7C
:10067800E8305B06033003195C0603195F2B0A3068
:100688008F316227833140015B08013EDB00003077
:100698005C3DDC001030F0000030F1001530F20055
:1006A8000030F300F401F40AF5018E317C26833121
:1006B800003A03193C2B03305C02D53003195B0266
:1006C800031C682BDA01DA0ADB01DC015A08031D76
:1006D800BA2B4101D201D30101308E31EA26833190
:1006E8007C2B01305C02F53003195B020318982B50
:1006F8000A308F316227833140015B08013EDB00FD
:1007080000305C3DDC001030F0000030F1001530A6
:10071800F2000030F300F401F40AF5018E317C2672
:100728008331003A031D752B8F318227833186313F
:10073800302683314608DC004508DB003A30F000FB
:100748000030F1005C08F3005B08F2008731BC2739
:1007580083317108DC007008DB0002305C0209306C
:1007680003195B02031CBA2BDA01DA0A5A080319C7
:10077800C22B0F30D8002730D900C62B5C08D9000F
:100788005B08D8005908D6005808D5000800F800BA
:100798007808031DF31FE02B7009FA007109FB00AC
:1007A8007209FC007309FD00FA0A0319FB0A031910
:1007B800FC0A0319FD0AE82B7308FD007208FC0007
:1007C8007108FB007008FA00730872047104700461
:1007D800031DF72B0030F3000030F2000030F10069
:1007E8000030F00008009630F4007408F900FE307C
:1007F8007D0503191E2C0130F4007408F907013037
:10080800FD36FC0CFB0CFA0C890B042CFB2B01307D
:10081800F4007408F9070130FA070030FB3D003096
:10082800FC3D0030FD3D0130FD36FC0CFB0CFA0CA4
:10083800890B182CFF307D050319302C0B2C023046
:100848007902031C322C0130F9020130FA35FB0D14
:10085800FC0DFD0D890B2A2CFC1F232C79183C2C30
:10086800FF30FA05FF30FB057F30FC05FF30FD0542
:100878000310F90C7908F400F501F601F7011830B6
:10088800F435F50DF60DF70D890B442C7408FA04B0
:100898007508FB047608FC047708FD047808031D36
:1008A800F31F572CFD177D08F3007C08F2007B0826
:1008B800F1007A08F000080041013F08F7003E08FF
:1008C800F6003D08F5003C08F40074084001A0005B
:1008D8007508A1007608A2007708A3001030A0359B
:1008E800A10DA20DA30D890B732C2308F700220874
:1008F800F6002108F5002008F40066080319C12C49
:100908007408A0007508A1007608A2007708A30063
:100918001C08A400A501A601A7012408A004250815
:10092800A1042608A2042708A3042308F700220824
:10093800F6002108F5002008F4007408A0007508E6
:10094800A1007608A2007708A3001D08A400A5014D
:100958002408A500A4012408A7002508A800003041
:10096800A81BFF30A900AA002708A0042808A10492
:100978002908A2042A08A304D72C7408A000750823
:10098800A1007608A2007708A3005D08A4005E080D
:10099800A500A601A7012408A0072508A13D26084F
:1009A800A23D2708A33D2308F7002208F6002108E6
:1009B800F5002008F4007708F3007608F2007508BF
:1009C800F1007408F0000800A5005F080839A300CA
:1009D8002308DF008731F027843122080319F92C16
:1009E8005F080138A3002308DF005F080F39A30060
:1009F8002308DF002508F0395F04A3002308DF007F
:100A08008731F027843164308F3162278431400187
:100A18005F080438A3002308DF008731F0278431FA
:100A280064308F316227843140015F08FB39A300AD
:100A38002308DF008731F027843164308F31622743
:100A4800843140015F080839A3002308DF0087319B
:100A5800F027843122080319362D5F080138A300D6
:100A68002308DF005F080F39A3002308DF002508EB
:100A78000F39A3000330A335FF3E031D3F2D233557
:100A88005F04A4002408DF008731F0278431643034
:100A98008F316227843140015F080438A30023089E
:100AA800DF008731F027843164308F316227843149
:100AB80040015F08FB39A3002308DF008731F027D6
:100AC800843164308F316227080003103C0D3D0DDE
:100AD800BE003E08C4004408031D7B2D0030BD0045
:100AE8000030BC000030BB000030BA0008003A08F3
:100AF800BE003B08BF003C08C0003D08C1001F30D5
:100B0800C136C00CBF0CBE0C890B842D3E08C20038
:100B18004208C300BC17FF30BA05FF30BB05FF30E1
:100B2800BC050030BD059630C402C41FAE2D440874
:100B3800803A973E031C722D0130BD36BC0CBB0CAD
:100B4800BA0C890BA12D0130BE003E08C407031959
:100B5800BF2DA02D203044020318722D440803191C
:100B6800BF2D0130BA35BB0DBC0DBD0D890BB62D9F
:100B78000130C402B22D430803190800BA09BB09A1
:100B8800BC09BD09BA0A0319BB0A0319BC0A03192F
:100B9800BD0A080027308E31492685310830A60065
:100BA8002608DF008731F02785310C308E313A2650
:100BB80085314001A20133308431E8248531023087
:100BC8008E313A2685314001A20133308431E82440
:100BD800853102308E313A2685314001A20132300A
:100BE8008431E824853102308E313A26853140013E
:100BF800A2012C308431E824853102308E313A2626
:100C080085314001A20106308431E8248531023063
:100C18008E313A2685314001A2010C308431E82416
:100C2800853102308E313A2685314001A2010130EA
:100C38008431E824853102308E313A2685314001ED
:100C4800A20102308431E824853102308E313A26FF
:100C580085318E3168260800843160248631730816
:100C6800CC007208CB007108CA007008C90039307E
:100C7800A3005130A200B730A1001730A0004C08E3
:100C8800F3004B08F2004A08F1004908F000003070
:100C98008331CB2386317308A7007208A600710838
:100CA800A5007008A4008031342086312308D000C4
:100CB8002208CF002108CE002008CD005008A70048
:100CC8004F08A6004E08A5004D08A4004430A30014
:100CD8007A30A2000030A1000030A000803134201A
:100CE80086312308BD002208BC002108BB0020086B
:100CF800BA00853169253D08D4003C08D3003B087B
:100D0800D2003A08D1005408C8005308C700520856
:100D1800C6005108C5000800F200F3018030F10058
:100D28007108F40074080319D12E720874050319A8
:100D3800A02E40011316A92EEF30F10071084001D2
:100D48009305EF30F10071088E0504308F3162276A
:100D580086314001931504308F3162278631FF3088
:100D68004101DC00FF30DD00C32E01304101DC020F
:100D78000030DD3B5C0A03195D0A0319C62E4001E9
:100D88008E1DB92EF730F100710840019305F73038
:100D9800F10071088E057436932E40011316043045
:100DA8008F31622786314001931504308F316227D5
:100DB8008631400113160E1EE32EF301F30AF730B5
:100DC800F10071089305F730F10071088E0573087A
:100DD80008000030FC000030FB000030FA00003052
:100DE800F90073087204710470040319362FFD01A9
:100DF800FD0AF31B0B2F0130F035F10DF20DF30D49
:100E0800890B002F0130F8007808FD07FD2E01300E
:100E1800F935FA0DFB0DFC0D890B0C2F73087702C1
:100E2800031D202F72087602031D202F71087502FA
:100E3800031D202F70087402031C2B2F7008F40266
:100E48007108F53B7208F63B7308F73B79140130DB
:100E5800F336F20CF10CF00C890B2C2F0130FD024B
:100E6800031D0B2F7C08F3007B08F2007A08F100C1
:100E78007908F0000800FA00FB01FB0AF81F4B2F65
:100E8800FF307705F7007F307805F800FB01780818
:100E98007602031D512F77087502031C0800FC0118
:100EA800FD018E31B226873141016F35863190269A
:100EB8008731003A031D080078087D02031D662F5C
:100EC80077087C0203187A2F7C087A07F9007908DA
:100ED800860087010108863190268731003A031D74
:100EE8007A2F0130FC070030FD3D602F7B08031985
:100EF80008008E31CE2608008531CE258731033093
:100F08008E31972687318E316826873183312423A5
:100F1800873156084101CF00400155084101CE00F4
:100F28003C308E313A26873102304001A60091309C
:100F3800A7000C30A8000030A9008F31A327873103
:100F480041014F084001B60041014E084001B5007B
:100F58008F31432787311830A6009130A70003301E
:100F6800A8000030A9008F31A32787310130842FD2
:100F7800F501F601700871040319EB2FF701F70A60
:100F8800F11BD02F0130F035F10D890BC72F01303F
:100F9800F4007408F707C42F0130F535F60D890BF6
:100FA800D12F71087302031DDB2F70087202031C16
:100FB800E22F7008F2027108F33B75140130F13624
:100FC800F00C890BE32F0130F702031DD02F7608B0
:100FD800F1007508F00008005F08A0002008A100D3
:100FE8000130F5000030F6000130F7000030F8005D
:080FF800213087313F2708007A
:101C3600131693150800640080010131890B1F2ECD
:101C460000347E01B801C301CE01D901E401873118
:101C560080278E312D2E40015E08F1005D08F000D0
:101C660071089D0070089C00DD01DE010800F1008E
:101C76000130F102710A031908000730F0007D30C7
:101C8600890B432EF00B432E00003B2EF10071080A
:101C9600F00070084101EF0040016708031D0800CD
:101CA600E701E70A8E311B2608004001DD01DE014F
:101CB60001309C009D0100304101BF000030BE0094
:101CC6000030BD000030BC0008004001A201013018
:101CD6008431E8248E3102308E313A268E3140012D
:101CE600A20102308431E8248E3102308E313A2648
:101CF6000800720886007308870001087404F6005D
:101D060072088600730887007608810070088600CE
:101D16007108870001087405F600750A932EF636D9
:101D2600890B922E76080800F300F40173087402FA
:101D360003180800FA308E313A268E31FA308E3189
:101D46003A268E31FA308E313A268E31FA308E317D
:101D56003A268E310130F2007208F407992E931557
:101D6600131604308F3162278E31EF30F10071087F
:101D760040019305EF30F10071088E0504308F3174
:101D86006227F730F100710840019305F730F10042
:101D960071088E050800F730F10071089305F730D9
:101DA600F10071088E05EF30F10071089305EF30F0
:101DB600F10071088E0504308F3162278E314001A3
:101DC600931504308F316227400113160800F30083
:101DD60073080319F22E8E3158268E31F42E8E3169
:101DE6002E268B17903040019E001F08F0399F0069
:101DF6001F081F3940389F004E0196160130F20029
:101E060072084001E6000800F501F6017308760243
:101E1600031D0F2F7208750203181F2F7008750710
:101E260084007108763D8500120003191F2F0130CA
:101E3600F5070030F63D092F7608F1007508F00029
:101E46000800F800F401F5017008F200F3017208C9
:101E5600F6007308F700781C342F7608F407770825
:101E6600F53D0130F635F70D890B352F0310F80CCB
:101E76007808031D2E2F7508F1007408F00008007D
:101E86003508A0003608A100890D893B8909A20002
:101E9600A3003830B7003708A4000A30A500003088
:101EA600A60082314C228F313830A6000030A700C0
:101EB6000A30A8000030A9008F31A3270800F000DF
:101EC60064307002031C742FA630890B682F003211
:101ED6006430F002632F1030890B6F2F00320A3006
:101EE600F0020A307002031C7C2F6E2F0032003283
:101EF60000000130F002700A03190800792F1C084F
:101F0600F000F1017008F5007108F6001D08F000F8
:101F1600F1017008F100F00175087004F30076080D
:101F26007104F4007308F5007408F6004E01961269
:101F360040019E01E6017608DE007508DD00080016
:101F4600AE012708F1002608F0002908F30028084A
:101F5600F2008F3107278F317008AA002A08AD00DA
:101F66002D082E02031808001030AA002A08A20025
:101F76002708AC002608AB002E082B0784002C0887
:101F860003182C0A850000088431E8248F314001AB
:101F96002E08013EAA002A08AE00B32F0030FB002F
:101FA6000030FA000030F9000030F800701CE32F12
:101FB6007408F8077508F93D7608FA3D7708FB3D81
:101FC6000130F435F50DF60DF70D890BE42F0130D0
:101FD600F336F20CF10CF00C890BEB2F730872043C
:101FE60071047004031DD92F7B08F3007A08F200F0
:101FF6007908F1007808F000080050344334423480
:102006002034663475346C346C3479342034663458
:1020160075346E346334743469346F346E346134B9
:102026006C3400344434343420342634203444347C
:1020360031343E34203447345234453445344E34FA
:1020460020344C344534443400344434353420345C
:1020560026342034443432343E34203441344D3432
:1020660042344534523420344C34453444340034FC
:102076005434653473347434203461346C346C34C1
:102086002034733477346934743463346834653493
:102096007334003444343634203426342034443403
:1020A60033343E34203452344534443420344C34B2
:1020B600453444340034533465346E3473346F34E9
:1020C60072342034773461346B3469346E34673457
:1020D60020347534703400343F3406345B344F3466
:1020E60066346D347D3407347F346F340034003405
:1020F600003400340034003441346E3461346C34BE
:102106006F3467342034763461346C347534653416
:1021160020343D342034003454346F342034653454
:1021260078346934743420347034723465347334DA
:102136007334203423340034483475346D346934B0
:1021460064346934743479342034203420342034AF
:102156003D3420340034543465346D347034653481
:1021660072346134743475347234653420343D34D9
:1021760020340034503449344334203444346534F4
:1021860076342E34203442346F34613472346434FD
:102196000034503465347434653472342034483431
:1021A60061346C346C346F34773461347934003490
:1021B60044346534633465346D3462346534723462
:1021C600203432343034323434340034313432341E
:1021D60033343434353436343734383439342A34B5
:1021E60030342334003401340234033404340534E7
:1021F60006340734083409340A3400340B344434C2
:1022060069347334743461346E3463346534203421
:102216003D342034003456346534723473346934B2
:102226006F346E3420343334003463346D34003408
:10223600253400342C340034303400343134003446
:0422460043340034E9
:020000040001F9
:0A000E00FA173F37923FFF1FFF3F34
:00000001FF
