:04000000803117280C
:100008007E1480314E018C1A961E1528013041014C
:10001800CC070030CD3D0030CE3D0030CF3D4E0105
:100028008C127E100900803119282030840000309D
:1000380085003E308331D1238031A03084000030E8
:10004800850030308331D1237E1040018231C32AAC
:10005800F2008331322380317208433E84008330BA
:100068000318013E85000008F1007108F300FD3017
:10007800F10071089305731C4428180802384628B3
:100088001808FD398E007336F1007108F300FE3050
:10009800F10071089305731C542818080138562874
:1000A8001808FE398E007336F1007108F300FD3030
:1000B800F10071089105731C642816080238662837
:1000C8001608FD398C007336F1007108F3007F3093
:1000D800F10071089305731C742818088038762875
:1000E80018087F398E007336F1007108F300BF30AD
:1000F800F10071089305731C842818084038862875
:100108001808BF398E007336F1007108F300DF302C
:10011800F10071089305731C942818082038962854
:100128001808DF398E007336F1007108F300FB30D0
:10013800F10071089305731CA42818080438A62830
:100148001808FB398E007336F1007108F300FD3092
:10015800F10071089205701CB42817080238B628F7
:100168001708FD398D00EF30F10071089105160868
:10017800EF398C000800FA0102290D30F000003038
:10018800F1001230F2000030F300F401F40AF50136
:10019800FA280D30F0000030F1001230F200003083
:1001A800F3000230F7007708F400F501F50AFA28A1
:1001B8000D30F0000030F1001230F2000030F30092
:1001C8000430F7007708F4000230F7280D30F0000B
:1001D8000030F1001230F2000030F3000830F70070
:1001E8007708F4000330F8007808F50082317D22A2
:1001F80080317A08013EF7007708FA0004307A0265
:10020800031815297A08003A0319C128013A031975
:10021800CD28033A0319DC28013A0319EA28FD28F6
:10022800FD28FA013529EF30F700770840019205DB
:100238001708EF392629DF30F700770840019205C3
:100248001708DF398D0030297F30F7007708400123
:10025800940519087F398F007A08013EF70077085E
:10026800FA0003307A02031808007A08003A0319E2
:100278001729013A03191F29033A03192829013AB2
:1002880003193029302930298031BF2081314001BC
:10029800E201FF30DE005E08E000C229EF30DE0038
:1002A8005E089205170810385F29DF30DE005E0807
:1002B8009205170820388D0077297F30DE005E0808
:1002C8009405190880388F0077296208003A0319C5
:1002D8005229013A03195929033A03196129013AA4
:1002E800031977297729143082315D2281318131D0
:1002F800C82181314001DE005E08E1009A29EF3013
:10030800DE005E0892051708EF399029DF30DE001D
:100318005E0892051708DF398D00A8297F30DE00B6
:100328005E08940519087F398F00A8296208003AE9
:1003380003198329013A03198A29033A03199229CF
:10034800013A0319A829A829610A0319B829033011
:10035800DE005E08F00061088331212381316207E5
:10036800DF005F08E000C629323082315D2281312A
:1003780040016208013EDE005E08E20003306202CE
:10038800031C692960080800FC01FB01FC01FF301F
:10039800F7007708FA00352A0D30F0000030F10038
:1003A8001230F2000030F300F401F40AF501823152
:1003B8007D228131F7007708182A0D30F0000030CF
:1003C800F1001230F2000030F3000230F700770835
:1003D800F400F501F50A82317D228131F8007808B0
:1003E800182A0D30F0000030F1001230F200003011
:1003F800F3000430F7007708F4000230102A0D30BB
:10040800F0000030F1001230F2000030F300083044
:10041800F7007708F4000330F8007808F500823117
:100428007D228131F9007908FB00282A7C08003AEE
:100438000319D029013A0319E129033A0319F529C7
:10044800013A0319032A282A7B080319302A7C0851
:10045800F7007708FA00392A7C08013EF700770888
:10046800FC0004307C02031C1A2A7A0808000134B4
:1004780002340334043405340634073408340934A8
:100488000A3400340B34413444344334203469345E
:100498006E347034753474342034663472346F3486
:1004A8006D3420344C344434523420343D342034B8
:1004B8000034F00064307002031C6F2AA630890BE8
:1004C800632A00326430F0025E2A1030890B6A2AEF
:1004D80000320A30F0020A307002031C772A692AB7
:1004E8000032003200000130F002700A03190800DF
:1004F800742A720886007308870001087404F600DD
:1005080072088600730887007608810070088600E4
:100518007108870001087405F600750A942AF636F2
:10052800890B932A76080800813148218231FD0021
:100538007D08E300630A0319AC2A63083B3E840084
:1005480082300318013E85000008FD007D08E300A5
:100558006308080050344334423420346634753418
:100568006C346C3479342034663475346E346334C6
:10057800743469346F346E3461346C3400347E0101
:10058800B801C301CE01D901E4018331C12382310D
:100598008331CA238231EE006E08C100F0014108A0
:1005A80080312C208231CC2A44343434203426340F
:1005B8002034443431343E342034473452344534C2
:1005C80045344E3420344C344534443400344434B7
:1005D8003534203426342034443432343E34203404
:1005E80041344D3442344534523420344C3445344B
:1005F80044340034543465347334743420346134EE
:100608006C346C3420347334773469347434633420
:100618006834653473340034443436342034263432
:100628002034443433343E34203452344534443452
:1006380020344C34453444340034F300F201731C44
:10064800292B7008F1007108F2070310F00D031050
:10065800F30C7308031D232B720808000030E9000F
:100668000030E8000030E7000030E6000030E50028
:100678000030E4000030E3003F30E20008003F347F
:1006880006345B344F3466346D347D3407347F343C
:100698006F34003400340034003400340034413402
:1006A8006E3461346C346F3467342034763461349A
:1006B8006C347534653420343D342034003454347B
:1006C8006F342034653478346934743420347034A9
:1006D8007234653473347334203423340034503422
:1006E8004934433420344434653476342E34203449
:1006F80042346F34613472346434003450346534B5
:100708007434653472342034483461346C346C3455
:100718006F34773461347934003444346534633465
:1007280065346D3462346534723420343234303494
:1007380032343434003431343234333434343534AC
:1007480036343734383439342A34303423340034A6
:10075800443469347334743461346E3463346534C6
:1007680020343D340034563465347234733469347B
:100778006F346E34203433340034EF30F0007008B6
:1007880040019105160810388C0008008231982223
:10079800E4006408E5006508080064008001013190
:0C07A800890BD22B003463346D34003414
:020000040001F9
:0A000E00FA173F37923FFF1FFF3F34
:00000001FF
