:04000000803117280C
:100008007E1480314E018C1A961E1528013041014C
:10001800CD070030CE3D0030CF3D0030D03D4E0101
:100028008C127E100900803119282030840000309D
:1000380085003E30833176238031A0308400003043
:1000480085003130833176237E1040018131D429F7
:10005800E3004A080839E1006108CA008231DC225D
:100068008031600803193D284A080138E100610819
:10007800CA004A080F39E1006108CA006308F0396C
:100088004A04E1006108CA008231DC228031643010
:100098008131FE21803140014A080438E1006108BD
:1000A800CA008231DC22803164308131FE21803106
:1000B80040014A08FB39E1006108CA008231DC22AC
:1000C800803164308131FE21803140014A0808398D
:1000D800E1006108CA008231DC228031600803191E
:1000E8007A284A080138E1006108CA004A080F392D
:1000F800E1006108CA0063080F39E1000330E13507
:10010800FF3E031D832861354A04E2006208CA00E5
:100118008231DC22803164308131FE21803140011E
:100128004A080438E1006108CA008231DC228031C3
:1001380064308131FE21803140014A08FB39E100F9
:100148006108CA008231DC22803164308131FE21AD
:10015800080027308331452380310830E4006408E3
:10016800CA008231DC2280310C308331282380316F
:100178004001E001333080312C208031023083315E
:10018800282380314001E001333080312C20803138
:1001980002308331282380314001E0013230803140
:1001A8002C20803102308331282380314001E00146
:1001B8002C3080312C20803102308331282380314B
:1001C8004001E001063080312C208031023083313B
:1001D800282380314001E0010C3080312C2080310F
:1001E80002308331282380314001E0010130803121
:1001F8002C20803102308331282380314001E001F6
:10020800023080312C208031023083312823803124
:100218008231A7220800F200F3018030F100710852
:10022800F400740803194B297208740503191E2970
:1002380013162629EF30F10071089305EF30F1000D
:1002480071088E0504308131FE21813140019315FA
:1002580004308131FE218131FF304001BA00FF3086
:10026800BB003F290130BA020030BB3B3A0A0319F0
:100278003B0A031941298E1D3629F730F100710810
:100288009305F730F10071088E057436122913169C
:1002980004308131FE2181314001931504308131D0
:1002A800FE218131400113160E1E5C29F301F30A69
:1002B800F730F10071089305F730F10071088E05E9
:1002C80073080800FA00FB01FB0AF81F7229FF30C7
:1002D8007705F7007F307805F800FB01780876028B
:1002E800031D782977087502031C0800FC01FD012D
:1002F8008231762281316E3581310F218131003A88
:10030800031D080078087D02031D8C2977087C02EC
:100318000318A0297C087A07F90079088600870164
:10032800010881310F218131003A031DA0290130D4
:10033800FC070030FD3D86297B080319080082313F
:100348005A220800EC016508F1006408F00067080B
:10035800F3006608F20082313D2281317008E8001E
:100368006808EB006B086C02031808001030E800FE
:100378006808E0006508EA006408E9006C08690795
:1003880084006A0803186A0A8500000880312C2056
:10039800813140016C08013EE8006808EC00B6298C
:1003A8007E01B801C301CE01D901E4018031AD203D
:1003B80081310A304001E4008330E5000F30E60067
:1003C8000030E7008131A62181310230ED006D084F
:1003D800E400003082311E2281317C304001E4008B
:1003E8008330E5000530E6000030E7008131A621C2
:1003F8008131FD29F00064307002031C102AA630F8
:10040800890B042A00326430F002FF291030890B6E
:100418000B2A00320A30F0020A307002031C182A34
:100428000A2A0032003200000130F002700A031973
:100438000800152AE6006408031D242A8030302AA3
:100448006403031D292AC030302A02306406031DC4
:100458002F2A9430302AD430E5006508E400E00102
:100468006408660780312C208231023083312823CA
:100478000800F501F60173087602031D452A720883
:1004880075020318552A7008750784007108763DAF
:10049800850012000319552A0130F5070030F63D92
:1004A8003F2A7608F1007508F0000800F730F100DF
:1004B80071089305F730F10071088E05EF30F100EF
:1004C80071089305EF30F10071088E050430813111
:1004D800FE2182314001931504308131FE21400113
:1004E800131608009315131604308131FE2182314A
:1004F800EF30F100710840019305EF30F100710809
:100508008E0504308131FE21F730F1007108400179
:100518009305F730F10071088E0508005034433414
:1005280042342034663475346C346C347934203475
:10053800663475346E346334743469346F346E34AD
:1005480061346C3400344001E001013080312C20EA
:10055800823102308331282382314001E0010230A8
:1005680080312C2082310230833128230800533413
:1005780065346E3473346F347234203477346134B4
:100588006B3469346E346734203475347034003415
:100598003F3406345B344F3466346D347D3407346D
:1005A8007F346F34003400340034003400340034B5
:1005B8004A08DE005E08DF000130F5000030F60072
:1005C8000130F7000030F8005F3081316621080003
:1005D800483475346D346934643469347434793426
:1005E80020342034203420343D3420340034543432
:1005F80065346D34703465347234613474347534F0
:100608007234653420343D34203400345034493455
:10061800433420344434653476342E342034423420
:100628006F34613472346434003450346534743453
:10063800653472342034483461346C346C346F342B
:100648007734613479340034F1000130F102710AF1
:10065800031908000730F0007D30890B312BF00BAF
:10066800312B0000292B44346534633465346D34F0
:1006780062346534723420343234303432343434B1
:100688000034F1007108F00070084001EE005508D0
:10069800031D0800D501D50A8331812308003134B0
:1006A80032343334343435343634373438343934F6
:1006B8002A3430342334003401340234033404340B
:1006C800053406340734083409340A3400340B344A
:1006D800563465347234733469346F346E3420346C
:1006E80033340034640080010131890B772B0034E6
:1006F800323430343234353400341316931508004C
:10070800253400342C34003430340034313400348F
:040718004334003432
:020000040001F9
:0A000E00FA173F259207FF0FFF3F8E
:00000001FF
