:04000000803117280C
:100008007E1480314E018C1A961E1528013040014D
:10001800A4070030A53D0030A63D0030A73D4E01A5
:100028008C127E100900803119282030840000309D
:1000380085004530843170248031A0308400003040
:1000480085002830843170247E1040018231512A85
:10005800EA0052080839E8006808D2008331E92329
:100068008031670803193D2852080138E8006808FC
:10007800D20052080F39E8006808D2006A08F0393F
:100088005204E8006808D2008331E92380316430E3
:100098008231B0228031400152080438E8006808F3
:1000A800D2008331E923803164308231B02280313B
:1000B80040015208FB39E8006808D2008331E9237F
:1000C800803164308231B0228031400152080839D1
:1000D800E8006808D2008331E923803167080319F2
:1000E8007A2852080138E8006808D20052080F3907
:1000F800E8006808D2006A080F39E8000330E835DC
:10010800FF3E031D832868355204E9006908D200C0
:100118008331E923803164308231B022803140015B
:1001280052080438E8006808D2008331E923803196
:1001380064308231B022803140015208FB39E80036
:100148006808D2008331E923803164308231B022DB
:10015800080027308431342480310830EB006B08E4
:10016800D2008331E92380310C3084311724803167
:100178004001E701333080312C2080310230843156
:10018800172480314001E701333080312C20803141
:1001980002308431172480314001E7013230803148
:1001A8002C20803102308431172480314001E7014E
:1001B8002C3080312C20803102308431172480315A
:1001C8004001E701063080312C2080310230843133
:1001D800172480314001E7010C3080312C20803118
:1001E80002308431172480314001E7010130803129
:1001F8002C20803102308431172480314001E701FE
:10020800023080312C208031023084311724803133
:1002180083314C230800F200F3018030F1007108AB
:10022800F400740803194B297208740503191E2970
:1002380013162629EF30F10071089305EF30F1000D
:1002480071088E0504308231B02281314001931546
:1002580004308231B0228131FF304001C200FF30CA
:10026800C3003F290130C2020030C33B420A0319D0
:10027800430A031941298E1D3629F730F100710808
:100288009305F730F10071088E057436122913169C
:1002980004308231B022813140019315043082311B
:1002A800B0228131400113160E1E5C29F301F30AB6
:1002B800F730F10071089305F730F10071088E05E9
:1002C80073080800F600083076020318792901300F
:1002D800F40076080739890A7229F435890B7129DF
:1002E8007408F50075089104962910307602031CED
:1002F800962918307602031C962920307602031CB2
:10030800962928307602031896290130F4007608D9
:100318000739890A9029F435890B8F297408F50063
:1003280075089504760841019E009A018030930073
:1003380071083F39980072080319A5291A08720430
:100348009A0073088231B0220800FA00FB01FB0A08
:10035800F81FB529FF307705F7007F307805F800DA
:10036800FB0178087602031DBB2977087502031C78
:100378000800FC01FD018231EC2281316F358131A9
:100388000F218131003A031D080078087D02031D02
:10039800CF2977087C020318E3297C087A07F9003B
:1003A800790886008701010881310F218131003ADF
:1003B800031DE3290130FC070030FD3DC9297B08F6
:1003C800031908008231D0220800E800EC01E90195
:1003D800EA0168086C0203180A2A8331082381316C
:1003E8004001E5006508EB007B088231B0228131CD
:1003F80040016B086907E9006A0803186A0AEA00FD
:100408006C08013EE5006508EC00ED296C08E50084
:10041800E6016508F0006608F1006A08F30069085B
:10042800F20082311D227008E7006708EB006B08B4
:100438000800F501F6017008710403194C2AF70148
:10044800F70AF11B312A0130F035F10D890B282A02
:100458000130F4007408F707252A0130F535F60D48
:10046800890B322A71087302031D3C2A7008720234
:10047800031C432A7008F2027108F33B751401301B
:10048800F136F00C890B442A0130F702031D312A9A
:100498007608F1007508F00008007E01B801C30174
:1004A800CE01D901E4018031AD20823100308331A1
:1004B800D923823132308431172482310A30400105
:1004C800ED006D08FB000A308131E9218231EE0030
:1004D8006E08C800C9304802031C792AFB30ED00B9
:1004E8006D089105160804387F2AFB30ED006D0869
:1004F80091051608FB398C000A305F2AF500410186
:1005080013141318852A75080319A42A0D08F20074
:10051800F301F235F30DF235F30D7208F6007308A6
:10052800F7000C08F2000630F236890B982A760894
:100538007204F3007708F4007308F6007408AA2A16
:100548000D08F200F3017208F6007308F700770847
:10055800F1007608F0000800F00064307002031C17
:10056800C22AA630890BB62A00326430F002B12ABA
:100578001030890BBD2A00320A30F0020A307002AE
:10058800031CCA2ABC2A0032003200000130F002E3
:10059800700A03190800C72AF730F100710893059B
:1005A800F730F10071088E05EF30F10071089305FE
:1005B800EF30F10071088E0504308231B0228231AB
:1005C8004001931504308231B0224001131608000F
:1005D8009315131604308231B0228231EF30F100C6
:1005E800710840019305EF30F10071088E05043061
:1005F8008231B022F730F100710840019305F730DD
:10060800F10071088E0508000330F8007808F10041
:10061800F2012830F9007908F30021308131662190
:10062800833100308231822283317008F8007808E3
:10063800FA0084317C247A08080041344434433475
:10064800203469346E34703475347434203466342C
:1006580072346F346D3420344C3444345234203482
:100668003D3420340034503443344234203466342A
:1006780075346C346C3479342034663475346E34A3
:100688006334743469346F346E3461346C340034D8
:100698004001E701013080312C2083310230843160
:1006A800172483314001E701023080312C20833147
:1006B800023084311724080044343434203426347A
:1006C8002034443431343E342034473452344534B1
:1006D80045344E3420344C344534443400344434A6
:1006E8003534203426342034443432343E342034F3
:1006F80041344D3442344534523420344C3445343A
:1007080044340034543465347334743420346134DC
:100718006C346C342034733477346934743463340F
:100728006834653473340034443436342034263421
:100738002034443433343E34203452344534443441
:1007480020344C344534443400343F3406345B346C
:100758004F3466346D347D3407347F346F3400345D
:100768000034003400340034003441346E346134D1
:100778006C346F3467342034763461346C347534B7
:10078800653420343D342034003454346F342034FC
:100798006534783469347434203470347234653490
:1007A800733473342034233400344001E80068087B
:1007B8000319E12B52080838E32B5208F739E700F0
:1007C8006708D2008331E92308005208E50065086C
:1007D800E6000130F5000030F6000130F700003087
:1007E800F80066308131A921080050344934433477
:1007F80020344434653476342E34203442346F3413
:10080800613472346434003450346534743465347B
:1008180072342034483461346C346C346F34773437
:10082800613479340034F1000130F102710A03199E
:1008380008000730F0007D30890B202CF00B202CAD
:100848000000182C44346534633465346D346234E4
:100858006534723420343234303432343434003431
:10086800F1007108F00070084001EF005D08031DF9
:100878000800DD01DD0A843179240800313432347E
:1008880033343434353436343734383439342A341C
:10089800303423340034013402340334043405344E
:1008A80006340734083409340A3400340B34443429
:1008B80069347334743461346E3463346534203489
:1008C8003D340034563465347234733469346F34CB
:1008D8006E34203433340034640080010131890BD4
:1008E800712C003463346D340034131693150800EA
:0408F8009301080060
:020000040001F9
:0A000E00FA173F37923FFF1FFF3F34
:00000001FF
