:04000000803117280C
:100008007E1480314E018C1A961E1528013040014D
:10001800A4070030A53D0030A63D0030A73D4E01A5
:100028008C127E100900803119282030840000309D
:1000380085004630833198238031A0308400003019
:1000480085002930833198237E10400180312C2887
:100058007E01B801C301CE01D901E4018131332108
:10006800803100308231ED2280310F30F0000030D5
:10007800F1001430F2000030F3000230ED006D089A
:10008800F400F501F50A823188228031EE006E080D
:10009800CC000F30F0000030F1001430F2000030D6
:1000A800F3000430ED006D08F4000230EE006E0835
:1000B800F500823188228031EF006F08CD000F30C3
:1000C800F0000030F1001430F2000030F300083086
:1000D800ED006D08F4000330EE006E08F500823183
:1000E80088228031EF006F08CE000A308331582310
:1000F800803140014C03031D8828DF30ED006D0876
:100108009105160820388E28DF30ED006D0891051E
:100118001608DF398C004D03031D9928F730ED00D0
:100128006D089105160808389F28F730ED006D080E
:1001380091051608F7398C004E03031DAA28FB30D9
:10014800ED006D08910516080438B028FB30ED0065
:100158006D0891051608FB398C003928EB00520808
:100168000839E9006908D2008231FD228031680827
:100178000319C32852080138E9006908D200520857
:100188000F39E9006908D2006B08F0395204E90018
:100198006908D2008231FD228031643082313022F8
:1001A8008031400152080438E9006908D2008231E0
:1001B800FD22803164308231302280314001520882
:1001C800FB39E9006908D2008231FD2280316430B0
:1001D800823130228031400152080839E90069082B
:1001E800D2008231FD2280316808031900295208A3
:1001F8000138E9006908D20052080F39E900690896
:10020800D2006B080F39E9000330E935FF3E031DC2
:10021800092969355204EA006A08D2008231FD22B0
:1002280080316430823130228031400152080438F4
:10023800E9006908D2008231FD22803164308231C0
:100248003022803140015208FB39E9006908D200A8
:100258008231FD228031643082313022080027301B
:100268008331492381310830EC006C08D200823197
:10027800FD2281310C308331582381314001E8015E
:1002880033308031B22081310230833158238131BB
:100298004001E80133308031B220813102308331AE
:1002A800582381314001E80132308031B220813158
:1002B80002308331582381314001E8012C308031EC
:1002C800B220813102308331582381314001E80165
:1002D80006308031B2208131023083315823813198
:1002E8004001E8010C308031B22081310230833185
:1002F800582381314001E80101308031B220813139
:1003080002308331582381314001E80102308031C5
:10031800B220813102308331582381318231B822B1
:100328000800F200F3018030F1007108F40074084D
:100338000319D329720874050319A5294001131656
:10034800AE29EF30F100710840019305EF30F1005C
:1003580071088E05043082313022813140019315B5
:100368000430823130228131FF304001C200FF3039
:10037800C300C7290130C2020030C33B420A031937
:10038800430A0319C9298E1DBE29F730F1007108E7
:100398009305F730F10071088E05743698294001ED
:1003A8001316043082313022813140019315043014
:1003B800823130228131400113160E1EE529F301E6
:1003C800F30AF730F10071089305F730F10071086E
:1003D8008E0573080800FA00FB01FB0AF81FFB29C9
:1003E800FF307705F7007F307805F800FB017808C3
:1003F8007602031D012A77087502031C0800FC0118
:10040800FD0182316C2281314101493581319521CB
:100418008131003A031D080078087D02031D162A61
:1004280077087C0203182A2A7C087A07F9007908D9
:10043800860087010108813195218131003A031D29
:100448002A2A0130FC070030FD3D102A7B080319D9
:100458000800823150220800F00064307002031C4A
:10046800422AA630890B362A00326430F002312A3B
:100478001030890B3D2A00320A30F0020A3070022F
:10048800031C4A2A3C2A0032003200000130F002E4
:10049800700A03190800472AF730F100710893051C
:1004A800F730F10071088E05EF30F10071089305FF
:1004B800EF30F10071088E0504308231302282312C
:1004C8004001931504308231302240011316080090
:1004D800931513160430823130228231EF30F10047
:1004E800710840019305EF30F10071088E05043062
:1004F80082313022F730F100710840019305F7305E
:10050800F10071088E0508007208860073088700DC
:1005180001087404F60072088600730887007608DC
:100528008100700886007108870001087405F600CC
:10053800750A9F2AF636890B9E2A760808005034D9
:10054800433442342034663475346C346C34793432
:100558002034663475346E346334743469346F34DB
:100568006E3461346C3400344001E801013080316C
:10057800B220823102308331582382314001E801B0
:1005880002308031B2208231023083315823080092
:10059800533465346E3473346F34723420347734A2
:1005A80061346B3469346E34673420347534703494
:1005B80000343F3406345B344F3466346D347D3454
:1005C80007347F346F34003400340034003400348E
:1005D80000344001E90069080319F52A520808386F
:1005E800F72A5208F739E8006808D2008231FD225C
:1005F80008005208E6006608E7000130F500003000
:10060800F6000130F7000030F80067308131EF2143
:100618000800483475346D3469346434693474348A
:10062800793420342034203420343D3420340034CC
:10063800543465346D3470346534723461347434D0
:1006480075347234653420343D34203400345034E9
:100658004934433420344434653476342E342034D9
:1006680042346F3461347234643400345034653445
:100678007434653472342034483461346C346C34E6
:100688006F347734613479340034F1007108F00044
:1006980070084101C90040015D08031D0800DD0123
:1006A800DD0A83319E230800F1000130F102710A4E
:1006B800031908000730F0007D30890B612BF00B1F
:1006C800612B0000592B44346534633465346D3430
:1006D8006234653472342034323430343234343451
:1006E80000343134323433343434353436343734F6
:1006F800383439342A343034233400340134023461
:1007080003340434053406340734083409340A340D
:1007180000340B34563465347234733469346F34AE
:100728006E34203433340034640080010131890B85
:10073800992B0034131693150800253400342C34F3
:0E074800003430340034313400344334003493
:020000040001F9
:0A000E00FA173F259207FF0FFF3F8E
:00000001FF
