:04000000803117280C
:100008007E1480314E018C1A961E1528013041014C
:10001800CD070030CE3D0030CF3D0030D03D4E0101
:100028008C127E100900803119282030840000309D
:1000380085002B308531FB258031A03084000030CD
:10004800850045308531FB257E104001813104292A
:100058004E08DB004D08DA004C08D9004B08D800E0
:100068003B30DF009A30DE00CA30DD000030DC00B3
:10007800D7015008510403190800DB1F59282D30F7
:10008800D2004F0886008701520881000130D20053
:100098005208D707D809D909DA09DB09D80A031998
:1000A800D90A0319DA0A0319DB0AD6015B085A04CC
:1000B80059045804031DE028D601D60A0030DF0091
:1000C8000030DE000030DD000130DF285F085B0211
:1000D800031D78285E085A02031D78285D08590216
:1000E800031D78285C08580203187D285608031950
:1000F800C5285F08F3005E08F2005D08F1005C089F
:10010800F0005B08F7005A08F6005908F50058088F
:10011800F4008231E82280317008D2005208D600FB
:100128005608303ED20057084F07D30053088600C0
:100138008701520881000130D2005208D7075608BB
:10014800D200D301D401D5015508F3005408F200B8
:100158005308F1005208F0005F08F7005E08F60047
:100168005D08F5005C08F40083317B23803170085A
:10017800D8027108D93B7208DA3B7308DB3BD60119
:10018800D60A0030F3000030F2000030F1000A30E7
:10019800F0005F08F7005E08F6005D08F5005C08EF
:1001A800F4008231E82280317308DF007208DE0033
:1001B8007108DD007008DC005708D200D30151082F
:1001C8005302031DE928500852020318F1285F085A
:1001D8005E045D045C04031D6A285708D200D3013D
:1001E80051085302031DFA28500852020318080048
:1001F80057084F07D200520886008701810108007E
:100208007E01B801C301CE01D901E40182312C225B
:100218008131E5304001D1008430D2001430D30060
:100228000030D4008331AA238131D101D10A0030B2
:100238008431412481310D304001D1008530D20014
:100248001330D3000030D4008331AA238131023027
:10025800ED006D08D1000030843141248131313006
:100268004001D1008530D2001130D3000030D400D5
:100278008331AA2381310330ED006D08D1000030AD
:100288008431412481310F30F0000030F100143006
:10029800F2000030F30010304001ED006D08F4006A
:1002A8000430EE006E08F5008431B5248131EF008A
:1002B8006F08B3000F30F0000030F1001430F20086
:1002C8000030F3002030ED006D08F4000530EE003A
:1002D8006E08F5008431B5248131EF006F08B40051
:1002E8000F30F0000030F1001430F2000030F3005D
:1002F8004030ED006D08F4000630EE006E08F500A1
:100308008431B5248131EF006F08B6003308340713
:100318003607ED006D08B50003308331D8238131ED
:10032800CA304001D1008530D2000E30D3000030F1
:10033800D4008331AA2381313508ED00EE016D0820
:10034800E0006E08E1008431222481314729D00081
:1003580037080839CE004E08B7008531522581315B
:100368004D080319BC2937080138CE004E08B700DC
:1003780037080F39CE004E08B7005008F039370457
:10038800CE004E08B7008531522581316430843162
:1003980002248131400137080438CE004E08B700E6
:1003A8008531522581316430843102248131400104
:1003B8003708FB39CE004E08B70085315225813108
:1003C8006430843102248131400137080839CE0075
:1003D8004E08B7008531522581314D080319F92996
:1003E80037080138CE004E08B70037080F39CE005D
:1003F8004E08B70050080F39CE000330CE35FF3E07
:10040800031D022A4E353704CF004F08B700853147
:10041800522581316430843102248131400137080A
:100428000438CE004E08B70085315225813164303A
:1004380084310224813140013708FB39CE004E084F
:10044800B700853152258131643084310224080097
:10045800273085319E2582310830D1005108B700F8
:100468008531522582310C308531AD2582314001EC
:10047800CD0133308131AB21823102308531AD2558
:1004880082314001CD0133308131AB2182310230DC
:100498008531AD2582314001CD0132308131AB212A
:1004A800823102308531AD2582314001CD012C30B9
:1004B8008131AB21823102308531AD258231400155
:1004C800CD0106308131AB21823102308531AD2535
:1004D80082314001CD010C308131AB2182310230B3
:1004E8008531AD2582314001CD0101308131AB210B
:1004F800823102308531AD2582314001CD01023093
:100508008131AB21823102308531AD258231843190
:10051800F9240800F200F3018030F1007108F400BA
:1005280074080319CC2A7208740503199E2A40011D
:100538001316A72AEF30F100710840019305EF3038
:10054800F10071088E0504308431022482314001A3
:1005580093150430843102248231FF304001A60013
:10056800FF30A700C02A0130A6020030A73B260AA8
:100578000319270A0319C22A8E1DB72AF730F1007A
:1005880071089305F730F10071088E057436912AC9
:10059800400113160430843102248231400193153E
:1005A8000430843102248231400113160E1EDE2AE3
:1005B800F301F30AF730F10071089305F730F10001
:1005C80071088E05730808000030FC000030FB003D
:1005D8000030FA000030F9007308720471047004E6
:1005E8000319312BFD01FD0AF31B062B0130F035F1
:1005F800F10DF20DF30D890BFB2A0130F800780894
:10060800FD07F82A0130F935FA0DFB0DFC0D890BB1
:10061800072B73087702031D1B2B72087602031D34
:100628001B2B71087502031D1B2B70087402031C19
:10063800262B7008F4027108F53B7208F63B730824
:10064800F73B79140130F336F20CF10CF00C890BFE
:10065800272B0130FD02031D062B7C08F3007B08C5
:10066800F2007A08F1007908F0000800FA00FB01AE
:10067800FB0AF81F462BFF307705F7007F30780517
:10068800F800FB0178087602031D4C2B77087502E9
:10069800031C0800FC01FD018431992483314101C8
:1006A800653582318E228331003A031D08007808AF
:1006B8007D02031D612B77087C020318752B7C08CB
:1006C8007A07F900790886008701010882318E22AD
:1006D8008331003A031D752B0130FC070030FD3DC6
:1006E8005B2B7B080319080084317D240800003047
:1006F800FB000030FA000030F9000030F800701CF0
:100708008D2B7408F8077508F93D7608FA3D7708C7
:10071800FB3D0130F435F50DF60DF70D890B8E2BE9
:100728000130F336F20CF10CF00C890B952B7308A1
:10073800720471047004031D832B7B08F3007A088C
:10074800F2007908F1007808F0000800D901520891
:10075800F1005108F0005408F3005308F200843106
:10076800602483317008D5005508D800580859020C
:10077800031808001030D5005508CD005208D700DE
:100788005108D60059085607840057080318570A15
:10079800850000088131AB21833140015908013EB1
:1007A800D5005508D900BA2BD600043056020318D4
:1007B80008005608D4005408D10000308431412480
:1007C80083314001D501143055020318FA2B10303B
:1007D800D4005408CD0020308131AB218331400151
:1007E8005508013ED4005408D500E72B5608D4001C
:1007F8005408D1000030843141240800F0006430EE
:100808007002031C142CA630890B082C00326430AB
:10081800F002032C1030890B0F2C00320A30F00242
:100828000A307002031C1C2C0E2C0032003200000F
:100838000130F002700A03190800192C6008CB0077
:100848006108CC00890D893B8909CD00CE00633051
:10085800E2006208CF000A30D0000030D1008031B9
:100868002C2084316330D1000030D2000A30D3000C
:100878000030D4008331AA230800D3005108031D97
:10088800472C8030532C5103031D4C2CC030532C63
:1008980002305106031D522C9430532CD430D20010
:1008A8005208D100CD01510853078131AB21843161
:1008B80002308531AD250800F501F601730876028E
:1008C800031D682C720875020318782C70087507C8
:1008D80084007108763D850012000319782C0130D8
:1008E800F5070030F63D622C7608F1007508F00037
:1008F8000800F730F10071089305F730F10071082E
:100908008E05EF30F10071089305EF30F1007108A2
:100918008E0504308431022484314001931504305B
:10092800843102244001131608009315131604306D
:10093800843102248431EF30F100710840019305BD
:10094800EF30F10071088E05043084310224F7304D
:10095800F100710840019305F730F10071088E0528
:100968000800720886007308870001087404F600FE
:100978007208860073088700760881007008860070
:100988007108870001087405F600750ACC2CF63644
:10099800890BCB2C76080800503443344234203479
:1009A800663475346C346C34793420346634753478
:1009B8006E346334743469346F346E3461346C3437
:1009C80000344F34703465347234613474346934AB
:1009D8006E346734203474346834653420347334A6
:1009E8006C3469346434653400344001CD0101301D
:1009F8008131AB21843102308531AD25843140010C
:100A0800CD0102308131AB21843102308531AD25F1
:100A18000800733477346934743463346834653463
:100A280073342034773469346C346C34203467344C
:100A38006934763465340034533465346E34733431
:100A48006F3472342034773461346B3469346E34E3
:100A58006734203475347034003474346834653441
:100A6800203472346534733475346C3474342034FF
:100A7800623465346C346F34773400343F34063470
:100A88005B344F3466346D347D3407347F346F34CF
:100A98000034003400340034003400343708CB000C
:100AA8004B08CC000130F5000030F6000130F700AB
:100AB8000030F8004C3083313A230800483475344C
:100AC8006D346934643469347434793420342034AE
:100AD800203420343D3420340034543465346D34AB
:100AE80070346534723461347434753472346534F6
:100AF80020343D34203400345034493443342034D5
:100B08004434653476342E34203442346F346134BE
:100B18007234643400345034653474346534723457
:100B28002034483461346C346C346F347734613435
:100B380079340034F1007108F00070084101E500D3
:100B480040014208031D0800C201C20A863101267D
:100B58000800F1000130F102710A0319080007309A
:100B6800F0007D30890BB62DF00BB62D0000AE2DB0
:100B780044346534633465346D34623465347234B6
:100B880020343234303432343434003473347734EB
:100B980069347434633468346534733420346F349E
:100BA8006E3420343D340034313432343334343408
:100BB800353436343734383439342A3430342334FD
:100BC8000034013402340334043405340634073461
:100BD800083409340A3400340B345634653472341A
:100BE800733469346F346E34203433340034640021
:100BF80080010131890BFC2D003413169315080070
:100C0800253400342C34003430340034313400348A
:040C1800433400342D
:020000040001F9
:0A000E00FA173F259207FF0FFF3F8E
:00000001FF
